{"abi":[{"type":"constructor","inputs":[{"name":"name_","type":"string","internalType":"string"},{"name":"symbol_","type":"string","internalType":"string"},{"name":"cost_","type":"uint256","internalType":"uint256"},{"name":"larpcoin_","type":"address","internalType":"address"},{"name":"slowlock_","type":"address","internalType":"address"},{"name":"roundLength_","type":"uint256","internalType":"uint256"},{"name":"tokenURI_","type":"string","internalType":"string"},{"name":"initialOwner","type":"address","internalType":"address"}],"stateMutability":"nonpayable"},{"type":"function","name":"CLOCK_MODE","inputs":[],"outputs":[{"name":"","type":"string","internalType":"string"}],"stateMutability":"view"},{"type":"function","name":"approve","inputs":[{"name":"to","type":"address","internalType":"address"},{"name":"tokenId","type":"uint256","internalType":"uint256"}],"outputs":[],"stateMutability":"nonpayable"},{"type":"function","name":"balanceOf","inputs":[{"name":"owner","type":"address","internalType":"address"}],"outputs":[{"name":"","type":"uint256","internalType":"uint256"}],"stateMutability":"view"},{"type":"function","name":"clock","inputs":[],"outputs":[{"name":"","type":"uint48","internalType":"uint48"}],"stateMutability":"view"},{"type":"function","name":"cost","inputs":[],"outputs":[{"name":"","type":"uint256","internalType":"uint256"}],"stateMutability":"view"},{"type":"function","name":"delegate","inputs":[{"name":"delegatee","type":"address","internalType":"address"}],"outputs":[],"stateMutability":"nonpayable"},{"type":"function","name":"delegateBySig","inputs":[{"name":"delegatee","type":"address","internalType":"address"},{"name":"nonce","type":"uint256","internalType":"uint256"},{"name":"expiry","type":"uint256","internalType":"uint256"},{"name":"v","type":"uint8","internalType":"uint8"},{"name":"r","type":"bytes32","internalType":"bytes32"},{"name":"s","type":"bytes32","internalType":"bytes32"}],"outputs":[],"stateMutability":"nonpayable"},{"type":"function","name":"delegates","inputs":[{"name":"account","type":"address","internalType":"address"}],"outputs":[{"name":"","type":"address","internalType":"address"}],"stateMutability":"view"},{"type":"function","name":"eip712Domain","inputs":[],"outputs":[{"name":"fields","type":"bytes1","internalType":"bytes1"},{"name":"name","type":"string","internalType":"string"},{"name":"version","type":"string","internalType":"string"},{"name":"chainId","type":"uint256","internalType":"uint256"},{"name":"verifyingContract","type":"address","internalType":"address"},{"name":"salt","type":"bytes32","internalType":"bytes32"},{"name":"extensions","type":"uint256[]","internalType":"uint256[]"}],"stateMutability":"view"},{"type":"function","name":"expirePlayers","inputs":[{"name":"accounts","type":"address[]","internalType":"address[]"}],"outputs":[],"stateMutability":"nonpayable"},{"type":"function","name":"getApproved","inputs":[{"name":"tokenId","type":"uint256","internalType":"uint256"}],"outputs":[{"name":"","type":"address","internalType":"address"}],"stateMutability":"view"},{"type":"function","name":"getPastTotalSupply","inputs":[{"name":"timepoint","type":"uint256","internalType":"uint256"}],"outputs":[{"name":"","type":"uint256","internalType":"uint256"}],"stateMutability":"view"},{"type":"function","name":"getPastVotes","inputs":[{"name":"account","type":"address","internalType":"address"},{"name":"timepoint","type":"uint256","internalType":"uint256"}],"outputs":[{"name":"","type":"uint256","internalType":"uint256"}],"stateMutability":"view"},{"type":"function","name":"getVotes","inputs":[{"name":"account","type":"address","internalType":"address"}],"outputs":[{"name":"","type":"uint256","internalType":"uint256"}],"stateMutability":"view"},{"type":"function","name":"isApprovedForAll","inputs":[{"name":"owner","type":"address","internalType":"address"},{"name":"operator","type":"address","internalType":"address"}],"outputs":[{"name":"","type":"bool","internalType":"bool"}],"stateMutability":"view"},{"type":"function","name":"larpcoin","inputs":[],"outputs":[{"name":"","type":"address","internalType":"address"}],"stateMutability":"view"},{"type":"function","name":"minimumVotingBalance","inputs":[{"name":"player","type":"address","internalType":"address"}],"outputs":[{"name":"","type":"uint256","internalType":"uint256"}],"stateMutability":"view"},{"type":"function","name":"mint","inputs":[],"outputs":[],"stateMutability":"nonpayable"},{"type":"function","name":"mintAndPlay","inputs":[],"outputs":[],"stateMutability":"nonpayable"},{"type":"function","name":"mintPieces","inputs":[{"name":"quantity","type":"uint256","internalType":"uint256"}],"outputs":[],"stateMutability":"nonpayable"},{"type":"function","name":"mintTo","inputs":[{"name":"to","type":"address","internalType":"address"}],"outputs":[],"stateMutability":"nonpayable"},{"type":"function","name":"mintingLocked","inputs":[],"outputs":[{"name":"","type":"bool","internalType":"bool"}],"stateMutability":"view"},{"type":"function","name":"name","inputs":[],"outputs":[{"name":"","type":"string","internalType":"string"}],"stateMutability":"view"},{"type":"function","name":"nonces","inputs":[{"name":"owner","type":"address","internalType":"address"}],"outputs":[{"name":"","type":"uint256","internalType":"uint256"}],"stateMutability":"view"},{"type":"function","name":"owner","inputs":[],"outputs":[{"name":"","type":"address","internalType":"address"}],"stateMutability":"view"},{"type":"function","name":"ownerOf","inputs":[{"name":"tokenId","type":"uint256","internalType":"uint256"}],"outputs":[{"name":"","type":"address","internalType":"address"}],"stateMutability":"view"},{"type":"function","name":"playerRecords","inputs":[{"name":"player","type":"address","internalType":"address"}],"outputs":[{"name":"firstTime","type":"uint256","internalType":"uint256"},{"name":"activationTime","type":"uint256","internalType":"uint256"},{"name":"activationBalance","type":"uint256","internalType":"uint256"},{"name":"isActive","type":"bool","internalType":"bool"}],"stateMutability":"view"},{"type":"function","name":"renounceOwnership","inputs":[],"outputs":[],"stateMutability":"nonpayable"},{"type":"function","name":"roundLength","inputs":[],"outputs":[{"name":"","type":"uint256","internalType":"uint256"}],"stateMutability":"view"},{"type":"function","name":"safeTransferFrom","inputs":[{"name":"from","type":"address","internalType":"address"},{"name":"to","type":"address","internalType":"address"},{"name":"tokenId","type":"uint256","internalType":"uint256"}],"outputs":[],"stateMutability":"nonpayable"},{"type":"function","name":"safeTransferFrom","inputs":[{"name":"from","type":"address","internalType":"address"},{"name":"to","type":"address","internalType":"address"},{"name":"tokenId","type":"uint256","internalType":"uint256"},{"name":"data","type":"bytes","internalType":"bytes"}],"outputs":[],"stateMutability":"nonpayable"},{"type":"function","name":"setApprovalForAll","inputs":[{"name":"operator","type":"address","internalType":"address"},{"name":"approved","type":"bool","internalType":"bool"}],"outputs":[],"stateMutability":"nonpayable"},{"type":"function","name":"setCost","inputs":[{"name":"cost_","type":"uint256","internalType":"uint256"}],"outputs":[],"stateMutability":"nonpayable"},{"type":"function","name":"setMintingLocked","inputs":[{"name":"isLocked","type":"bool","internalType":"bool"}],"outputs":[],"stateMutability":"nonpayable"},{"type":"function","name":"setName","inputs":[{"name":"name_","type":"string","internalType":"string"}],"outputs":[],"stateMutability":"nonpayable"},{"type":"function","name":"setSlowlock","inputs":[{"name":"slowlock_","type":"address","internalType":"address"}],"outputs":[],"stateMutability":"nonpayable"},{"type":"function","name":"setStreamOnMint","inputs":[{"name":"streamOnMint_","type":"bool","internalType":"bool"}],"outputs":[],"stateMutability":"nonpayable"},{"type":"function","name":"setSymbol","inputs":[{"name":"symbol_","type":"string","internalType":"string"}],"outputs":[],"stateMutability":"nonpayable"},{"type":"function","name":"setTokenURI","inputs":[{"name":"tokenURI_","type":"string","internalType":"string"}],"outputs":[],"stateMutability":"nonpayable"},{"type":"function","name":"setTransferLimitsDisabled","inputs":[{"name":"isDisabled","type":"bool","internalType":"bool"}],"outputs":[],"stateMutability":"nonpayable"},{"type":"function","name":"slowlock","inputs":[],"outputs":[{"name":"","type":"address","internalType":"contract Slowlock"}],"stateMutability":"view"},{"type":"function","name":"streamOnMint","inputs":[],"outputs":[{"name":"","type":"bool","internalType":"bool"}],"stateMutability":"view"},{"type":"function","name":"supportsInterface","inputs":[{"name":"interfaceId","type":"bytes4","internalType":"bytes4"}],"outputs":[{"name":"","type":"bool","internalType":"bool"}],"stateMutability":"view"},{"type":"function","name":"symbol","inputs":[],"outputs":[{"name":"","type":"string","internalType":"string"}],"stateMutability":"view"},{"type":"function","name":"tokenByIndex","inputs":[{"name":"index","type":"uint256","internalType":"uint256"}],"outputs":[{"name":"","type":"uint256","internalType":"uint256"}],"stateMutability":"view"},{"type":"function","name":"tokenOfOwnerByIndex","inputs":[{"name":"owner","type":"address","internalType":"address"},{"name":"index","type":"uint256","internalType":"uint256"}],"outputs":[{"name":"","type":"uint256","internalType":"uint256"}],"stateMutability":"view"},{"type":"function","name":"tokenURI","inputs":[{"name":"tokenId","type":"uint256","internalType":"uint256"}],"outputs":[{"name":"","type":"string","internalType":"string"}],"stateMutability":"view"},{"type":"function","name":"totalSupply","inputs":[],"outputs":[{"name":"","type":"uint256","internalType":"uint256"}],"stateMutability":"view"},{"type":"function","name":"transferFrom","inputs":[{"name":"from","type":"address","internalType":"address"},{"name":"to","type":"address","internalType":"address"},{"name":"tokenId","type":"uint256","internalType":"uint256"}],"outputs":[],"stateMutability":"nonpayable"},{"type":"function","name":"transferLimitsDisabled","inputs":[],"outputs":[{"name":"","type":"bool","internalType":"bool"}],"stateMutability":"view"},{"type":"function","name":"transferOwnership","inputs":[{"name":"newOwner","type":"address","internalType":"address"}],"outputs":[],"stateMutability":"nonpayable"},{"type":"event","name":"Approval","inputs":[{"name":"owner","type":"address","indexed":true,"internalType":"address"},{"name":"approved","type":"address","indexed":true,"internalType":"address"},{"name":"tokenId","type":"uint256","indexed":true,"internalType":"uint256"}],"anonymous":false},{"type":"event","name":"ApprovalForAll","inputs":[{"name":"owner","type":"address","indexed":true,"internalType":"address"},{"name":"operator","type":"address","indexed":true,"internalType":"address"},{"name":"approved","type":"bool","indexed":false,"internalType":"bool"}],"anonymous":false},{"type":"event","name":"BatchMetadataUpdate","inputs":[{"name":"_fromTokenId","type":"uint256","indexed":false,"internalType":"uint256"},{"name":"_toTokenId","type":"uint256","indexed":false,"internalType":"uint256"}],"anonymous":false},{"type":"event","name":"DelegateChanged","inputs":[{"name":"delegator","type":"address","indexed":true,"internalType":"address"},{"name":"fromDelegate","type":"address","indexed":true,"internalType":"address"},{"name":"toDelegate","type":"address","indexed":true,"internalType":"address"}],"anonymous":false},{"type":"event","name":"DelegateVotesChanged","inputs":[{"name":"delegate","type":"address","indexed":true,"internalType":"address"},{"name":"previousVotes","type":"uint256","indexed":false,"internalType":"uint256"},{"name":"newVotes","type":"uint256","indexed":false,"internalType":"uint256"}],"anonymous":false},{"type":"event","name":"EIP712DomainChanged","inputs":[],"anonymous":false},{"type":"event","name":"MetadataUpdate","inputs":[{"name":"_tokenId","type":"uint256","indexed":false,"internalType":"uint256"}],"anonymous":false},{"type":"event","name":"OwnershipTransferred","inputs":[{"name":"previousOwner","type":"address","indexed":true,"internalType":"address"},{"name":"newOwner","type":"address","indexed":true,"internalType":"address"}],"anonymous":false},{"type":"event","name":"PlayerReactivated","inputs":[{"name":"account","type":"address","indexed":true,"internalType":"address"}],"anonymous":false},{"type":"event","name":"PlayerRegistered","inputs":[{"name":"account","type":"address","indexed":true,"internalType":"address"}],"anonymous":false},{"type":"event","name":"PlayerRegistrationExpired","inputs":[{"name":"account","type":"address","indexed":true,"internalType":"address"},{"name":"minimum","type":"uint256","indexed":false,"internalType":"uint256"},{"name":"actual","type":"uint256","indexed":false,"internalType":"uint256"}],"anonymous":false},{"type":"event","name":"Transfer","inputs":[{"name":"from","type":"address","indexed":true,"internalType":"address"},{"name":"to","type":"address","indexed":true,"internalType":"address"},{"name":"tokenId","type":"uint256","indexed":true,"internalType":"uint256"}],"anonymous":false},{"type":"error","name":"CheckpointUnorderedInsertion","inputs":[]},{"type":"error","name":"ECDSAInvalidSignature","inputs":[]},{"type":"error","name":"ECDSAInvalidSignatureLength","inputs":[{"name":"length","type":"uint256","internalType":"uint256"}]},{"type":"error","name":"ECDSAInvalidSignatureS","inputs":[{"name":"s","type":"bytes32","internalType":"bytes32"}]},{"type":"error","name":"ERC5805FutureLookup","inputs":[{"name":"timepoint","type":"uint256","internalType":"uint256"},{"name":"clock","type":"uint48","internalType":"uint48"}]},{"type":"error","name":"ERC6372InconsistentClock","inputs":[]},{"type":"error","name":"ERC721EnumerableForbiddenBatchMint","inputs":[]},{"type":"error","name":"ERC721IncorrectOwner","inputs":[{"name":"sender","type":"address","internalType":"address"},{"name":"tokenId","type":"uint256","internalType":"uint256"},{"name":"owner","type":"address","internalType":"address"}]},{"type":"error","name":"ERC721InsufficientApproval","inputs":[{"name":"operator","type":"address","internalType":"address"},{"name":"tokenId","type":"uint256","internalType":"uint256"}]},{"type":"error","name":"ERC721InvalidApprover","inputs":[{"name":"approver","type":"address","internalType":"address"}]},{"type":"error","name":"ERC721InvalidOperator","inputs":[{"name":"operator","type":"address","internalType":"address"}]},{"type":"error","name":"ERC721InvalidOwner","inputs":[{"name":"owner","type":"address","internalType":"address"}]},{"type":"error","name":"ERC721InvalidReceiver","inputs":[{"name":"receiver","type":"address","internalType":"address"}]},{"type":"error","name":"ERC721InvalidSender","inputs":[{"name":"sender","type":"address","internalType":"address"}]},{"type":"error","name":"ERC721NonexistentToken","inputs":[{"name":"tokenId","type":"uint256","internalType":"uint256"}]},{"type":"error","name":"ERC721OutOfBoundsIndex","inputs":[{"name":"owner","type":"address","internalType":"address"},{"name":"index","type":"uint256","internalType":"uint256"}]},{"type":"error","name":"GamePieceBelowMinimumVotingBalance","inputs":[{"name":"from","type":"address","internalType":"address"},{"name":"minimum","type":"uint256","internalType":"uint256"}]},{"type":"error","name":"GamePieceIncorrectMintPayment","inputs":[{"name":"expectedPayment","type":"uint256","internalType":"uint256"},{"name":"actualPayment","type":"uint256","internalType":"uint256"}]},{"type":"error","name":"GamePieceMintingLocked","inputs":[]},{"type":"error","name":"InvalidAccountNonce","inputs":[{"name":"account","type":"address","internalType":"address"},{"name":"currentNonce","type":"uint256","internalType":"uint256"}]},{"type":"error","name":"InvalidShortString","inputs":[]},{"type":"error","name":"OwnableInvalidOwner","inputs":[{"name":"owner","type":"address","internalType":"address"}]},{"type":"error","name":"OwnableUnauthorizedAccount","inputs":[{"name":"account","type":"address","internalType":"address"}]},{"type":"error","name":"SafeCastOverflowedUintDowncast","inputs":[{"name":"bits","type":"uint8","internalType":"uint8"},{"name":"value","type":"uint256","internalType":"uint256"}]},{"type":"error","name":"StringTooLong","inputs":[{"name":"str","type":"string","internalType":"string"}]},{"type":"error","name":"VotesExpiredSignature","inputs":[{"name":"expiry","type":"uint256","internalType":"uint256"}]}],"bytecode":{"object":"0x6101a06040526016805460ff191660011790553480156200001f57600080fd5b50604051620038ec380380620038ec833981016040819052620000429162000397565b6040805180820190915260018152603160f81b602082015281908990818a60006200006e838262000505565b5060016200007d828262000505565b506200008f9150839050600a620001df565b61012052620000a081600b620001df565b61014052815160208084019190912060e052815190820120610100524660a0526200012e60e05161010051604080517f8b73c3c69bb8fe3d512ecc4cf759cc79239f7b179b0ffacaa9a75d522b39400f60208201529081019290925260608201524660808201523060a082015260009060c00160405160208183030381529060405280519060200120905090565b60805250503060c0526001600160a01b0381166200016757604051631e4fbdf760e01b8152600060048201526024015b60405180910390fd5b620001728162000218565b50601162000181898262000505565b50601262000190888262000505565b5060138690556001600160a01b0385811661016052601480546001600160a01b0319169186169190911790556101808390526015620001d0838262000505565b5050505050505050506200062b565b6000602083511015620001ff57620001f7836200026a565b905062000212565b816200020c848262000505565b5060ff90505b92915050565b601080546001600160a01b038381166001600160a01b0319831681179093556040519116919082907f8be0079c531659141344cd1fd0a4f28419497f9722a3daafe3b4186f6b6457e090600090a35050565b600080829050601f8151111562000298578260405163305a27a960e01b81526004016200015e9190620005d1565b8051620002a58262000606565b179392505050565b634e487b7160e01b600052604160045260246000fd5b60005b83811015620002e0578181015183820152602001620002c6565b50506000910152565b600082601f830112620002fb57600080fd5b81516001600160401b0380821115620003185762000318620002ad565b604051601f8301601f19908116603f01168101908282118183101715620003435762000343620002ad565b816040528381528660208588010111156200035d57600080fd5b62000370846020830160208901620002c3565b9695505050505050565b80516001600160a01b03811681146200039257600080fd5b919050565b600080600080600080600080610100898b031215620003b557600080fd5b88516001600160401b0380821115620003cd57600080fd5b620003db8c838d01620002e9565b995060208b0151915080821115620003f257600080fd5b620004008c838d01620002e9565b985060408b015197506200041760608c016200037a565b96506200042760808c016200037a565b955060a08b0151945060c08b01519150808211156200044557600080fd5b50620004548b828c01620002e9565b9250506200046560e08a016200037a565b90509295985092959890939650565b600181811c908216806200048957607f821691505b602082108103620004aa57634e487b7160e01b600052602260045260246000fd5b50919050565b601f82111562000500576000816000526020600020601f850160051c81016020861015620004db5750805b601f850160051c820191505b81811015620004fc57828155600101620004e7565b5050505b505050565b81516001600160401b03811115620005215762000521620002ad565b620005398162000532845462000474565b84620004b0565b602080601f831160018114620005715760008415620005585750858301515b600019600386901b1c1916600185901b178555620004fc565b600085815260208120601f198616915b82811015620005a25788860151825594840194600190910190840162000581565b5085821015620005c15787850151600019600388901b60f8161c191681555b5050505050600190811b01905550565b6020815260008251806020840152620005f2816040850160208701620002c3565b601f01601f19169190910160400192915050565b80516020808301519190811015620004aa5760001960209190910360031b1b16919050565b60805160a05160c05160e051610100516101205161014051610160516101805161323b620006b1600039600081816105bc0152610cbb01526000818161039d01528181610884015261117d015260006117c4015260006117970152600061220b015260006121e30152600061213e0152600061216801526000612192015261323b6000f3fe608060405234801561001057600080fd5b50600436106102f15760003560e01c8063755edd171161019d578063aff33dca116100e9578063c87b56dd116100a2578063e0df5b6f1161007c578063e0df5b6f1461070f578063e985e9c514610722578063f2fde38b14610735578063fa8787b41461074857600080fd5b8063c87b56dd146106d6578063c8b892e0146106e9578063c919c034146106fc57600080fd5b8063aff33dca1461066f578063b84c824614610682578063b88d4fde14610695578063bf156350146106a8578063c3cda520146106b0578063c47f0027146106c357600080fd5b80638e539e8c116101565780639a57a808116101305780639a57a808146106295780639ab24eb0146106365780639eca444614610649578063a22cb4651461065c57600080fd5b80638e539e8c146105ef57806391ddadf41461060257806395d89b411461062157600080fd5b8063755edd17146105065780637c01800d146105195780637ecebe001461057357806384b0196e1461059c5780638b649b94146105b75780638da5cb5b146105de57600080fd5b80632f745c591161025c5780634f6ccce7116102155780635ceeec4f116101ef5780635ceeec4f146104c55780636352211e146104d857806370a08231146104eb578063715018a6146104fe57600080fd5b80634f6ccce714610473578063587cde1e146104865780635c19a95c146104b257600080fd5b80632f745c591461040c5780633a46b1a81461041f57806342842e0e1461043257806343cd31d51461044557806344a0d68a146104585780634bf5d7e91461046b57600080fd5b806310a8a5c4116102ae57806310a8a5c4146103985780631249c58b146103bf57806313faede6146103c7578063146527f0146103de57806318160ddd146103f157806323b872dd146103f957600080fd5b806301ffc9a7146102f657806306fdde031461031e57806307bdeb8714610333578063081812fc14610348578063095ea7b3146103735780630fc50ebb14610386575b600080fd5b610309610304366004612ab0565b61075b565b60405190151581526020015b60405180910390f35b61032661076c565b6040516103159190612b13565b610346610341366004612b34565b6107fe565b005b61035b610356366004612b51565b610819565b6040516001600160a01b039091168152602001610315565b610346610381366004612b86565b610842565b60165461030990610100900460ff1681565b61035b7f000000000000000000000000000000000000000000000000000000000000000081565b610346610851565b6103d060135481565b604051908152602001610315565b6103466103ec366004612bb0565b610908565b6008546103d0565b610346610407366004612c25565b6109fd565b6103d061041a366004612b86565b610a8d565b6103d061042d366004612b86565b610af2565b610346610440366004612c25565b610b73565b610346610453366004612b34565b610b8e565b610346610466366004612b51565b610bb2565b610326610bbf565b6103d0610481366004612b51565b610c37565b61035b610494366004612c61565b6001600160a01b039081166000908152600d60205260409020541690565b6103466104c0366004612c61565b610c90565b6103d06104d3366004612c61565b610c9b565b61035b6104e6366004612b51565b610d2a565b6103d06104f9366004612c61565b610d35565b610346610d7d565b610346610514366004612c61565b610d91565b610551610527366004612c61565b60176020526000908152604090208054600182015460028301546003909301549192909160ff1684565b6040805194855260208501939093529183015215156060820152608001610315565b6103d0610581366004612c61565b6001600160a01b03166000908152600c602052604090205490565b6105a4610da2565b6040516103159796959493929190612c7c565b6103d07f000000000000000000000000000000000000000000000000000000000000000081565b6010546001600160a01b031661035b565b6103d06105fd366004612b51565b610de8565b61060a610e52565b60405165ffffffffffff9091168152602001610315565b610326610e61565b6016546103099060ff1681565b6103d0610644366004612c61565b610e70565b60145461035b906001600160a01b031681565b61034661066a366004612d15565b610ea0565b6016546103099062010000900460ff1681565b610346610690366004612dd8565b610eab565b6103466106a3366004612e21565b610ebf565b610346610ed6565b6103466106be366004612e9d565b610efe565b6103466106d1366004612dd8565b610fbb565b6103266106e4366004612b51565b610fcf565b6103466106f7366004612c61565b61106d565b61034661070a366004612b34565b611097565b61034661071d366004612dd8565b6110b9565b610309610730366004612efd565b61110c565b610346610743366004612c61565b61113a565b610346610756366004612b51565b611175565b60006107668261125b565b92915050565b60606011805461077b90612f30565b80601f01602080910402602001604051908101604052809291908181526020018280546107a790612f30565b80156107f45780601f106107c9576101008083540402835291602001916107f4565b820191906000526020600020905b8154815290600101906020018083116107d757829003601f168201915b5050505050905090565b610806611280565b6016805460ff1916911515919091179055565b6000610824826112ad565b506000828152600460205260409020546001600160a01b0316610766565b61084d8282336112e6565b5050565b6014546013546040516323b872dd60e01b81523360048201526001600160a01b03928316602482015260448101919091527f0000000000000000000000000000000000000000000000000000000000000000918216906323b872dd906064016020604051808303816000875af11580156108cf573d6000803e3d6000fd5b505050506040513d601f19601f820116820180604052508101906108f39190612f6a565b506108fc6112f3565b61090533611362565b50565b60005b818110156109f857600083838381811061092757610927612f87565b905060200201602081019061093c9190612c61565b905061094781610e70565b60000361095457506109f0565b6001600160a01b03811660009081526017602052604081209061097683610c9b565b9050600061098384610d35565b9050808211156109eb5760038301805460ff191690556109a684600060016113a8565b60408051838152602081018390526001600160a01b038616917f5fe42d325c4f0219b54fecad0b2254f69c2cd2f9c35537621928aef127c9986e910160405180910390a25b505050505b60010161090b565b505050565b6001600160a01b038216610a2c57604051633250574960e11b8152600060048201526024015b60405180910390fd5b6000610a39838333611423565b9050836001600160a01b0316816001600160a01b031614610a87576040516364283d7b60e01b81526001600160a01b0380861660048301526024820184905282166044820152606401610a23565b50505050565b6000610a9883610d35565b8210610ac95760405163295f44f760e21b81526001600160a01b038416600482015260248101839052604401610a23565b506001600160a01b03919091166000908152600660209081526040808320938352929052205490565b600080610afd610e52565b90508065ffffffffffff168310610b3857604051637669fc0f60e11b81526004810184905265ffffffffffff82166024820152604401610a23565b610b62610b4484611597565b6001600160a01b0386166000908152600e60205260409020906115ce565b6001600160d01b0316949350505050565b6109f883838360405180602001604052806000815250610ebf565b610b96611280565b60168054911515620100000262ff000019909216919091179055565b610bba611280565b601355565b6060610bc9611684565b65ffffffffffff16610bd9610e52565b65ffffffffffff1614610bff576040516301bfc1c560e61b815260040160405180910390fd5b5060408051808201909152601d81527f6d6f64653d626c6f636b6e756d6265722666726f6d3d64656661756c74000000602082015290565b6000610c4260085490565b8210610c6b5760405163295f44f760e21b81526000600482015260248101839052604401610a23565b60088281548110610c7e57610c7e612f87565b90600052602060002001549050919050565b3361084d818361168f565b6001600160a01b03811660009081526017602052604081206001015481907f000000000000000000000000000000000000000000000000000000000000000090610ce59042612fb3565b610cef9190612fdc565b6001600160a01b038416600090815260176020526040902060020154909150610d189082612ffe565b610d23906001612ffe565b9392505050565b6000610766826112ad565b60006001600160a01b038216610d61576040516322718ad960e21b815260006004820152602401610a23565b506001600160a01b031660009081526003602052604090205490565b610d85611280565b610d8f600061173e565b565b610d99611280565b61090581611362565b600060608060008060006060610db6611790565b610dbe6117bd565b60408051600080825260208201909252600f60f81b9b939a50919850469750309650945092509050565b600080610df3610e52565b90508065ffffffffffff168310610e2e57604051637669fc0f60e11b81526004810184905265ffffffffffff82166024820152604401610a23565b610e42610e3a84611597565b600f906115ce565b6001600160d01b03169392505050565b6000610e5c611684565b905090565b60606012805461077b90612f30565b6001600160a01b0381166000908152600e60205260408120610e91906117ea565b6001600160d01b031692915050565b61084d338383611823565b610eb3611280565b601261084d8282613061565b610eca8484846109fd565b610a87848484846118c2565b610ede610851565b336000908152601760205260408120549003610d8f57610d8f333361168f565b83421115610f2257604051632341d78760e11b815260048101859052602401610a23565b604080517fe48329057bfd03d55e49b547132e39cffd9c1820ad7b9d4c5307691425d15adf60208201526001600160a01b038816918101919091526060810186905260808101859052600090610f9c90610f949060a001604051602081830303815290604052805190602001206119eb565b858585611a18565b9050610fa88187611a46565b610fb2818861168f565b50505050505050565b610fc3611280565b601161084d8282613061565b6060610fda826112ad565b5060158054610fe890612f30565b80601f016020809104026020016040519081016040528092919081815260200182805461101490612f30565b80156110615780601f1061103657610100808354040283529160200191611061565b820191906000526020600020905b81548152906001019060200180831161104457829003601f168201915b50505050509050919050565b611075611280565b601480546001600160a01b0319166001600160a01b0392909216919091179055565b61109f611280565b601680549115156101000261ff0019909216919091179055565b6110c1611280565b60156110cd8282613061565b50604080516001815260001960208201527f6bd5c950a8d8df17f772f5af37cb3655737899cbf903264b9795592da439661c910160405180910390a150565b6001600160a01b03918216600090815260056020908152604080832093909416825291909152205460ff1690565b611142611280565b6001600160a01b03811661116c57604051631e4fbdf760e01b815260006004820152602401610a23565b6109058161173e565b6014546013547f0000000000000000000000000000000000000000000000000000000000000000916001600160a01b03808416926323b872dd92339216906111be908790613121565b6040516001600160e01b031960e086901b1681526001600160a01b03938416600482015292909116602483015260448201526064016020604051808303816000875af1158015611212573d6000803e3d6000fd5b505050506040513d601f19601f820116820180604052508101906112369190612f6a565b5061123f6112f3565b60005b828110156109f85761125333611362565b600101611242565b60006001600160e01b0319821663780e9d6360e01b1480610766575061076682611a99565b6010546001600160a01b03163314610d8f5760405163118cdaa760e01b8152336004820152602401610a23565b6000818152600260205260408120546001600160a01b03168061076657604051637e27328960e01b815260048101849052602401610a23565b6109f88383836001611ae9565b60165460ff1615610d8f57601460009054906101000a90046001600160a01b03166001600160a01b0316636f2a67916040518163ffffffff1660e01b8152600401600060405180830381600087803b15801561134e57600080fd5b505af1158015610a87573d6000803e3d6000fd5b601654610100900460ff161561138b5760405163111b3ba760e31b815260040160405180910390fd5b6109058161139860085490565b6113a3906001612ffe565b611bef565b6001600160a01b0383166113cf576113cc600f611c096113c784611c15565b611c49565b50505b6001600160a01b0382166113f1576113ee600f611c826113c784611c15565b50505b6001600160a01b038381166000908152600d60205260408082205485841683529120546109f892918216911683611c8e565b6000828152600260209081526040808320546001600160a01b031680845260179092528220546016549015159062010000900460ff161580156114635750805b801561147f575061147382610c9b565b61147c83610d35565b11155b156114b8578161148e83610c9b565b604051630f7b9d6560e01b81526001600160a01b0390921660048301526024820152604401610a23565b60006114c5878787611df5565b6001600160a01b03881660009081526017602052604090208054919250901580159081906114f85750600382015460ff16155b1561158a5760038201805460ff1916600117905561151589610d35565b61151e8a610c9b565b11156115485742826001018190555060016115388a610d35565b6115429190612fb3565b60028301555b61155560008a60016113a8565b6040516001600160a01b038a16907ff9e7a3c08351a79e68db9da8c33909a2da65154bb66a298c3c47b36d94256d9f90600090a25b5090979650505050505050565b600065ffffffffffff8211156115ca576040516306dfcc6560e41b81526030600482015260248101839052604401610a23565b5090565b81546000908181600581111561162d5760006115e984611eca565b6115f39085612fb3565b60008881526020902090915081015465ffffffffffff908116908716101561161d5780915061162b565b611628816001612ffe565b92505b505b600061163b87878585611fb2565b905080156116765761166087611652600184612fb3565b600091825260209091200190565b54600160301b90046001600160d01b0316611679565b60005b979650505050505050565b6000610e5c43611597565b6001600160a01b03821660009081526017602052604081208054909103611734574280825560018201556000600282018190556116cb84610d35565b11156116f2576116de60008460016113a8565b60038101805460ff191660011790556116ff565b60038101805460ff191690555b6040516001600160a01b038416907f8cd3331e32cec677d80b82cf0f71496605e7ed6ff864a3ccedc7d5d11d838c8390600090a25b6109f88383612014565b601080546001600160a01b038381166001600160a01b0319831681179093556040519116919082907f8be0079c531659141344cd1fd0a4f28419497f9722a3daafe3b4186f6b6457e090600090a35050565b6060610e5c7f0000000000000000000000000000000000000000000000000000000000000000600a612086565b6060610e5c7f0000000000000000000000000000000000000000000000000000000000000000600b612086565b8054600090801561181a5761180483611652600184612fb3565b54600160301b90046001600160d01b0316610d23565b60009392505050565b6001600160a01b03821661185557604051630b61174360e31b81526001600160a01b0383166004820152602401610a23565b6001600160a01b03838116600081815260056020908152604080832094871680845294825291829020805460ff191686151590811790915591519182527f17307eab39ab6107e8899845ad3d59bd9653f200f220920489ca2b5937696c31910160405180910390a3505050565b6001600160a01b0383163b15610a8757604051630a85bd0160e11b81526001600160a01b0384169063150b7a0290611904903390889087908790600401613138565b6020604051808303816000875af192505050801561193f575060408051601f3d908101601f1916820190925261193c91810190613175565b60015b6119a8573d80801561196d576040519150601f19603f3d011682016040523d82523d6000602084013e611972565b606091505b5080516000036119a057604051633250574960e11b81526001600160a01b0385166004820152602401610a23565b805181602001fd5b6001600160e01b03198116630a85bd0160e11b146119e457604051633250574960e11b81526001600160a01b0385166004820152602401610a23565b5050505050565b60006107666119f8612131565b8360405161190160f01b8152600281019290925260228201526042902090565b600080600080611a2a8888888861225c565b925092509250611a3a828261232b565b50909695505050505050565b6001600160a01b0382166000908152600c602052604090208054600181019091558181146109f8576040516301d4b62360e61b81526001600160a01b038416600482015260248101829052604401610a23565b60006001600160e01b031982166380ac58cd60e01b1480611aca57506001600160e01b03198216635b5e139f60e01b145b8061076657506301ffc9a760e01b6001600160e01b0319831614610766565b8080611afd57506001600160a01b03821615155b15611bbf576000611b0d846112ad565b90506001600160a01b03831615801590611b395750826001600160a01b0316816001600160a01b031614155b8015611b4c5750611b4a818461110c565b155b15611b755760405163a9fbf51f60e01b81526001600160a01b0384166004820152602401610a23565b8115611bbd5783856001600160a01b0316826001600160a01b03167f8c5be1e5ebec7d5bd14f71427d1e84f3dd0314c0f7b2291e5b200ac8c7c3b92560405160405180910390a45b505b5050600090815260046020526040902080546001600160a01b0319166001600160a01b0392909216919091179055565b61084d8282604051806020016040528060008152506123e4565b6000610d238284613192565b60006001600160d01b038211156115ca576040516306dfcc6560e41b815260d0600482015260248101839052604401610a23565b600080611c75611c57610e52565b611c6d611c63886117ea565b868863ffffffff16565b8791906123fb565b915091505b935093915050565b6000610d2382846131b9565b816001600160a01b0316836001600160a01b031614158015611cb05750600081115b156109f8576001600160a01b03831615611d53576001600160a01b0383166000908152600e602052604081208190611cee90611c826113c786611c15565b6001600160d01b031691506001600160d01b03169150846001600160a01b03167fdec2bacdd2f05b59de34da9b523dff8be42e5e38e818c82fdb0bae774387a7248383604051611d48929190918252602082015260400190565b60405180910390a250505b6001600160a01b038216156109f8576001600160a01b0382166000908152600e602052604081208190611d8c90611c096113c786611c15565b6001600160d01b031691506001600160d01b03169150836001600160a01b03167fdec2bacdd2f05b59de34da9b523dff8be42e5e38e818c82fdb0bae774387a7248383604051611de6929190918252602082015260400190565b60405180910390a25050505050565b600080611e03858585612409565b90506001600160a01b038116611e6057611e5b84600880546000838152600960205260408120829055600182018355919091527ff3f7a9fe364faab93b216da50a3214154f22a0a2b415b23a84c8169e8b636ee30155565b611e83565b846001600160a01b0316816001600160a01b031614611e8357611e838185612502565b6001600160a01b038516611e9f57611e9a84612593565b611ec2565b846001600160a01b0316816001600160a01b031614611ec257611ec28585612642565b949350505050565b600081600003611edc57506000919050565b60006001611ee984612692565b901c6001901b90506001818481611f0257611f02612fc6565b048201901c90506001818481611f1a57611f1a612fc6565b048201901c90506001818481611f3257611f32612fc6565b048201901c90506001818481611f4a57611f4a612fc6565b048201901c90506001818481611f6257611f62612fc6565b048201901c90506001818481611f7a57611f7a612fc6565b048201901c90506001818481611f9257611f92612fc6565b048201901c9050610d2381828581611fac57611fac612fc6565b04612726565b60005b8183101561200c576000611fc9848461273c565b60008781526020902090915065ffffffffffff86169082015465ffffffffffff161115611ff857809250612006565b612003816001612ffe565b93505b50611fb5565b509392505050565b6001600160a01b038281166000818152600d602052604080822080548686166001600160a01b0319821681179092559151919094169392849290917f3134e8a2e6d97e929a7e54011ea5485d7d196dd5f0ba4d4ef95803e8e3fc257f9190a46109f8818361208186612757565b611c8e565b606060ff83146120a0576120998361278d565b9050610766565b8180546120ac90612f30565b80601f01602080910402602001604051908101604052809291908181526020018280546120d890612f30565b80156121255780601f106120fa57610100808354040283529160200191612125565b820191906000526020600020905b81548152906001019060200180831161210857829003601f168201915b50505050509050610766565b6000306001600160a01b037f00000000000000000000000000000000000000000000000000000000000000001614801561218a57507f000000000000000000000000000000000000000000000000000000000000000046145b156121b457507f000000000000000000000000000000000000000000000000000000000000000090565b610e5c604080517f8b73c3c69bb8fe3d512ecc4cf759cc79239f7b179b0ffacaa9a75d522b39400f60208201527f0000000000000000000000000000000000000000000000000000000000000000918101919091527f000000000000000000000000000000000000000000000000000000000000000060608201524660808201523060a082015260009060c00160405160208183030381529060405280519060200120905090565b600080807f7fffffffffffffffffffffffffffffff5d576e7357a4501ddfe92f46681b20a08411156122975750600091506003905082612321565b604080516000808252602082018084528a905260ff891692820192909252606081018790526080810186905260019060a0016020604051602081039080840390855afa1580156122eb573d6000803e3d6000fd5b5050604051601f1901519150506001600160a01b03811661231757506000925060019150829050612321565b9250600091508190505b9450945094915050565b600082600381111561233f5761233f6131d9565b03612348575050565b600182600381111561235c5761235c6131d9565b0361237a5760405163f645eedf60e01b815260040160405180910390fd5b600282600381111561238e5761238e6131d9565b036123af5760405163fce698f760e01b815260048101829052602401610a23565b60038260038111156123c3576123c36131d9565b0361084d576040516335e2f38360e21b815260048101829052602401610a23565b6123ee83836127cc565b6109f860008484846118c2565b600080611c75858585612831565b6000828152600260205260408120546001600160a01b0390811690831615612436576124368184866129ab565b6001600160a01b0381161561247457612453600085600080611ae9565b6001600160a01b038116600090815260036020526040902080546000190190555b6001600160a01b038516156124a3576001600160a01b0385166000908152600360205260409020805460010190555b60008481526002602052604080822080546001600160a01b0319166001600160a01b0389811691821790925591518793918516917fddf252ad1be2c89b69c2b068fc378daa952ba7f163c4a11628f55a4df523b3ef91a4949350505050565b600061250d83610d35565b600083815260076020526040902054909150808214612560576001600160a01b03841660009081526006602090815260408083208584528252808320548484528184208190558352600790915290208190555b5060009182526007602090815260408084208490556001600160a01b039094168352600681528383209183525290812055565b6008546000906125a590600190612fb3565b600083815260096020526040812054600880549394509092849081106125cd576125cd612f87565b9060005260206000200154905080600883815481106125ee576125ee612f87565b6000918252602080832090910192909255828152600990915260408082208490558582528120556008805480612626576126266131ef565b6001900381819060005260206000200160009055905550505050565b6000600161264f84610d35565b6126599190612fb3565b6001600160a01b039093166000908152600660209081526040808320868452825280832085905593825260079052919091209190915550565b600080608083901c156126a757608092831c92015b604083901c156126b957604092831c92015b602083901c156126cb57602092831c92015b601083901c156126dd57601092831c92015b600883901c156126ef57600892831c92015b600483901c1561270157600492831c92015b600283901c1561271357600292831c92015b600183901c156107665760010192915050565b60008183106127355781610d23565b5090919050565b600061274b6002848418612fdc565b610d2390848416612ffe565b6001600160a01b03811660009081526017602052604081206003015460ff16612781576000612784565b60015b60ff1692915050565b6060600061279a83612a0f565b604080516020808252818301909252919250600091906020820181803683375050509182525060208101929092525090565b6001600160a01b0382166127f657604051633250574960e11b815260006004820152602401610a23565b600061280483836000611423565b90506001600160a01b038116156109f8576040516339e3563760e11b815260006004820152602401610a23565b82546000908190801561295057600061284f87611652600185612fb3565b60408051808201909152905465ffffffffffff808216808452600160301b9092046001600160d01b0316602084015291925090871610156128a357604051632520601d60e01b815260040160405180910390fd5b805165ffffffffffff8088169116036128ef57846128c688611652600186612fb3565b80546001600160d01b0392909216600160301b0265ffffffffffff909216919091179055612940565b6040805180820190915265ffffffffffff80881682526001600160d01b0380881660208085019182528b54600181018d5560008d81529190912094519151909216600160301b029216919091179101555b602001519250839150611c7a9050565b50506040805180820190915265ffffffffffff80851682526001600160d01b0380851660208085019182528854600181018a5560008a815291822095519251909316600160301b029190931617920191909155905081611c7a565b6129b6838383612a37565b6109f8576001600160a01b0383166129e457604051637e27328960e01b815260048101829052602401610a23565b60405163177e802f60e01b81526001600160a01b038316600482015260248101829052604401610a23565b600060ff8216601f81111561076657604051632cd44ac360e21b815260040160405180910390fd5b60006001600160a01b03831615801590611ec25750826001600160a01b0316846001600160a01b03161480612a715750612a71848461110c565b80611ec25750506000908152600460205260409020546001600160a01b03908116911614919050565b6001600160e01b03198116811461090557600080fd5b600060208284031215612ac257600080fd5b8135610d2381612a9a565b6000815180845260005b81811015612af357602081850181015186830182015201612ad7565b506000602082860101526020601f19601f83011685010191505092915050565b602081526000610d236020830184612acd565b801515811461090557600080fd5b600060208284031215612b4657600080fd5b8135610d2381612b26565b600060208284031215612b6357600080fd5b5035919050565b80356001600160a01b0381168114612b8157600080fd5b919050565b60008060408385031215612b9957600080fd5b612ba283612b6a565b946020939093013593505050565b60008060208385031215612bc357600080fd5b823567ffffffffffffffff80821115612bdb57600080fd5b818501915085601f830112612bef57600080fd5b813581811115612bfe57600080fd5b8660208260051b8501011115612c1357600080fd5b60209290920196919550909350505050565b600080600060608486031215612c3a57600080fd5b612c4384612b6a565b9250612c5160208501612b6a565b9150604084013590509250925092565b600060208284031215612c7357600080fd5b610d2382612b6a565b60ff60f81b881681526000602060e06020840152612c9d60e084018a612acd565b8381036040850152612caf818a612acd565b606085018990526001600160a01b038816608086015260a0850187905284810360c08601528551808252602080880193509091019060005b81811015612d0357835183529284019291840191600101612ce7565b50909c9b505050505050505050505050565b60008060408385031215612d2857600080fd5b612d3183612b6a565b91506020830135612d4181612b26565b809150509250929050565b634e487b7160e01b600052604160045260246000fd5b600067ffffffffffffffff80841115612d7d57612d7d612d4c565b604051601f8501601f19908116603f01168101908282118183101715612da557612da5612d4c565b81604052809350858152868686011115612dbe57600080fd5b858560208301376000602087830101525050509392505050565b600060208284031215612dea57600080fd5b813567ffffffffffffffff811115612e0157600080fd5b8201601f81018413612e1257600080fd5b611ec284823560208401612d62565b60008060008060808587031215612e3757600080fd5b612e4085612b6a565b9350612e4e60208601612b6a565b925060408501359150606085013567ffffffffffffffff811115612e7157600080fd5b8501601f81018713612e8257600080fd5b612e9187823560208401612d62565b91505092959194509250565b60008060008060008060c08789031215612eb657600080fd5b612ebf87612b6a565b95506020870135945060408701359350606087013560ff81168114612ee357600080fd5b9598949750929560808101359460a0909101359350915050565b60008060408385031215612f1057600080fd5b612f1983612b6a565b9150612f2760208401612b6a565b90509250929050565b600181811c90821680612f4457607f821691505b602082108103612f6457634e487b7160e01b600052602260045260246000fd5b50919050565b600060208284031215612f7c57600080fd5b8151610d2381612b26565b634e487b7160e01b600052603260045260246000fd5b634e487b7160e01b600052601160045260246000fd5b8181038181111561076657610766612f9d565b634e487b7160e01b600052601260045260246000fd5b600082612ff957634e487b7160e01b600052601260045260246000fd5b500490565b8082018082111561076657610766612f9d565b601f8211156109f8576000816000526020600020601f850160051c8101602086101561303a5750805b601f850160051c820191505b8181101561305957828155600101613046565b505050505050565b815167ffffffffffffffff81111561307b5761307b612d4c565b61308f816130898454612f30565b84613011565b602080601f8311600181146130c457600084156130ac5750858301515b600019600386901b1c1916600185901b178555613059565b600085815260208120601f198616915b828110156130f3578886015182559484019460019091019084016130d4565b50858210156131115787850151600019600388901b60f8161c191681555b5050505050600190811b01905550565b808202811582820484141761076657610766612f9d565b6001600160a01b038581168252841660208201526040810183905260806060820181905260009061316b90830184612acd565b9695505050505050565b60006020828403121561318757600080fd5b8151610d2381612a9a565b6001600160d01b038181168382160190808211156131b2576131b2612f9d565b5092915050565b6001600160d01b038281168282160390808211156131b2576131b2612f9d565b634e487b7160e01b600052602160045260246000fd5b634e487b7160e01b600052603160045260246000fdfea264697066735822122015e641131ed9df2fdafe1a7b6ace7095c3a752ae58f4e0d27273c148dc99194264736f6c63430008180033","linkReferences":{}},"methodIdentifiers":{"CLOCK_MODE()":"4bf5d7e9","approve(address,uint256)":"095ea7b3","balanceOf(address)":"70a08231","clock()":"91ddadf4","cost()":"13faede6","delegate(address)":"5c19a95c","delegateBySig(address,uint256,uint256,uint8,bytes32,bytes32)":"c3cda520","delegates(address)":"587cde1e","eip712Domain()":"84b0196e","expirePlayers(address[])":"146527f0","getApproved(uint256)":"081812fc","getPastTotalSupply(uint256)":"8e539e8c","getPastVotes(address,uint256)":"3a46b1a8","getVotes(address)":"9ab24eb0","isApprovedForAll(address,address)":"e985e9c5","larpcoin()":"10a8a5c4","minimumVotingBalance(address)":"5ceeec4f","mint()":"1249c58b","mintAndPlay()":"bf156350","mintPieces(uint256)":"fa8787b4","mintTo(address)":"755edd17","mintingLocked()":"0fc50ebb","name()":"06fdde03","nonces(address)":"7ecebe00","owner()":"8da5cb5b","ownerOf(uint256)":"6352211e","playerRecords(address)":"7c01800d","renounceOwnership()":"715018a6","roundLength()":"8b649b94","safeTransferFrom(address,address,uint256)":"42842e0e","safeTransferFrom(address,address,uint256,bytes)":"b88d4fde","setApprovalForAll(address,bool)":"a22cb465","setCost(uint256)":"44a0d68a","setMintingLocked(bool)":"c919c034","setName(string)":"c47f0027","setSlowlock(address)":"c8b892e0","setStreamOnMint(bool)":"07bdeb87","setSymbol(string)":"b84c8246","setTokenURI(string)":"e0df5b6f","setTransferLimitsDisabled(bool)":"43cd31d5","slowlock()":"9eca4446","streamOnMint()":"9a57a808","supportsInterface(bytes4)":"01ffc9a7","symbol()":"95d89b41","tokenByIndex(uint256)":"4f6ccce7","tokenOfOwnerByIndex(address,uint256)":"2f745c59","tokenURI(uint256)":"c87b56dd","totalSupply()":"18160ddd","transferFrom(address,address,uint256)":"23b872dd","transferLimitsDisabled()":"aff33dca","transferOwnership(address)":"f2fde38b"},"id":87}