{"abi":[{"type":"constructor","inputs":[{"name":"name","type":"string","internalType":"string"},{"name":"symbol","type":"string","internalType":"string"},{"name":"totalSupply","type":"uint256","internalType":"uint256"}],"stateMutability":"nonpayable"},{"type":"function","name":"CLOCK_MODE","inputs":[],"outputs":[{"name":"","type":"string","internalType":"string"}],"stateMutability":"view"},{"type":"function","name":"allowance","inputs":[{"name":"owner","type":"address","internalType":"address"},{"name":"spender","type":"address","internalType":"address"}],"outputs":[{"name":"","type":"uint256","internalType":"uint256"}],"stateMutability":"view"},{"type":"function","name":"approve","inputs":[{"name":"spender","type":"address","internalType":"address"},{"name":"value","type":"uint256","internalType":"uint256"}],"outputs":[{"name":"","type":"bool","internalType":"bool"}],"stateMutability":"nonpayable"},{"type":"function","name":"balanceOf","inputs":[{"name":"account","type":"address","internalType":"address"}],"outputs":[{"name":"","type":"uint256","internalType":"uint256"}],"stateMutability":"view"},{"type":"function","name":"checkpoints","inputs":[{"name":"account","type":"address","internalType":"address"},{"name":"pos","type":"uint32","internalType":"uint32"}],"outputs":[{"name":"","type":"tuple","internalType":"struct Checkpoints.Checkpoint208","components":[{"name":"_key","type":"uint48","internalType":"uint48"},{"name":"_value","type":"uint208","internalType":"uint208"}]}],"stateMutability":"view"},{"type":"function","name":"clock","inputs":[],"outputs":[{"name":"","type":"uint48","internalType":"uint48"}],"stateMutability":"view"},{"type":"function","name":"decimals","inputs":[],"outputs":[{"name":"","type":"uint8","internalType":"uint8"}],"stateMutability":"view"},{"type":"function","name":"delegate","inputs":[{"name":"delegatee","type":"address","internalType":"address"}],"outputs":[],"stateMutability":"nonpayable"},{"type":"function","name":"delegateBySig","inputs":[{"name":"delegatee","type":"address","internalType":"address"},{"name":"nonce","type":"uint256","internalType":"uint256"},{"name":"expiry","type":"uint256","internalType":"uint256"},{"name":"v","type":"uint8","internalType":"uint8"},{"name":"r","type":"bytes32","internalType":"bytes32"},{"name":"s","type":"bytes32","internalType":"bytes32"}],"outputs":[],"stateMutability":"nonpayable"},{"type":"function","name":"delegates","inputs":[{"name":"account","type":"address","internalType":"address"}],"outputs":[{"name":"","type":"address","internalType":"address"}],"stateMutability":"view"},{"type":"function","name":"eip712Domain","inputs":[],"outputs":[{"name":"fields","type":"bytes1","internalType":"bytes1"},{"name":"name","type":"string","internalType":"string"},{"name":"version","type":"string","internalType":"string"},{"name":"chainId","type":"uint256","internalType":"uint256"},{"name":"verifyingContract","type":"address","internalType":"address"},{"name":"salt","type":"bytes32","internalType":"bytes32"},{"name":"extensions","type":"uint256[]","internalType":"uint256[]"}],"stateMutability":"view"},{"type":"function","name":"getPastTotalSupply","inputs":[{"name":"timepoint","type":"uint256","internalType":"uint256"}],"outputs":[{"name":"","type":"uint256","internalType":"uint256"}],"stateMutability":"view"},{"type":"function","name":"getPastVotes","inputs":[{"name":"account","type":"address","internalType":"address"},{"name":"timepoint","type":"uint256","internalType":"uint256"}],"outputs":[{"name":"","type":"uint256","internalType":"uint256"}],"stateMutability":"view"},{"type":"function","name":"getVotes","inputs":[{"name":"account","type":"address","internalType":"address"}],"outputs":[{"name":"","type":"uint256","internalType":"uint256"}],"stateMutability":"view"},{"type":"function","name":"name","inputs":[],"outputs":[{"name":"","type":"string","internalType":"string"}],"stateMutability":"view"},{"type":"function","name":"nonces","inputs":[{"name":"owner","type":"address","internalType":"address"}],"outputs":[{"name":"","type":"uint256","internalType":"uint256"}],"stateMutability":"view"},{"type":"function","name":"numCheckpoints","inputs":[{"name":"account","type":"address","internalType":"address"}],"outputs":[{"name":"","type":"uint32","internalType":"uint32"}],"stateMutability":"view"},{"type":"function","name":"symbol","inputs":[],"outputs":[{"name":"","type":"string","internalType":"string"}],"stateMutability":"view"},{"type":"function","name":"totalSupply","inputs":[],"outputs":[{"name":"","type":"uint256","internalType":"uint256"}],"stateMutability":"view"},{"type":"function","name":"transfer","inputs":[{"name":"to","type":"address","internalType":"address"},{"name":"value","type":"uint256","internalType":"uint256"}],"outputs":[{"name":"","type":"bool","internalType":"bool"}],"stateMutability":"nonpayable"},{"type":"function","name":"transferFrom","inputs":[{"name":"from","type":"address","internalType":"address"},{"name":"to","type":"address","internalType":"address"},{"name":"value","type":"uint256","internalType":"uint256"}],"outputs":[{"name":"","type":"bool","internalType":"bool"}],"stateMutability":"nonpayable"},{"type":"event","name":"Approval","inputs":[{"name":"owner","type":"address","indexed":true,"internalType":"address"},{"name":"spender","type":"address","indexed":true,"internalType":"address"},{"name":"value","type":"uint256","indexed":false,"internalType":"uint256"}],"anonymous":false},{"type":"event","name":"DelegateChanged","inputs":[{"name":"delegator","type":"address","indexed":true,"internalType":"address"},{"name":"fromDelegate","type":"address","indexed":true,"internalType":"address"},{"name":"toDelegate","type":"address","indexed":true,"internalType":"address"}],"anonymous":false},{"type":"event","name":"DelegateVotesChanged","inputs":[{"name":"delegate","type":"address","indexed":true,"internalType":"address"},{"name":"previousVotes","type":"uint256","indexed":false,"internalType":"uint256"},{"name":"newVotes","type":"uint256","indexed":false,"internalType":"uint256"}],"anonymous":false},{"type":"event","name":"EIP712DomainChanged","inputs":[],"anonymous":false},{"type":"event","name":"Transfer","inputs":[{"name":"from","type":"address","indexed":true,"internalType":"address"},{"name":"to","type":"address","indexed":true,"internalType":"address"},{"name":"value","type":"uint256","indexed":false,"internalType":"uint256"}],"anonymous":false},{"type":"error","name":"CheckpointUnorderedInsertion","inputs":[]},{"type":"error","name":"ECDSAInvalidSignature","inputs":[]},{"type":"error","name":"ECDSAInvalidSignatureLength","inputs":[{"name":"length","type":"uint256","internalType":"uint256"}]},{"type":"error","name":"ECDSAInvalidSignatureS","inputs":[{"name":"s","type":"bytes32","internalType":"bytes32"}]},{"type":"error","name":"ERC20ExceededSafeSupply","inputs":[{"name":"increasedSupply","type":"uint256","internalType":"uint256"},{"name":"cap","type":"uint256","internalType":"uint256"}]},{"type":"error","name":"ERC20InsufficientAllowance","inputs":[{"name":"spender","type":"address","internalType":"address"},{"name":"allowance","type":"uint256","internalType":"uint256"},{"name":"needed","type":"uint256","internalType":"uint256"}]},{"type":"error","name":"ERC20InsufficientBalance","inputs":[{"name":"sender","type":"address","internalType":"address"},{"name":"balance","type":"uint256","internalType":"uint256"},{"name":"needed","type":"uint256","internalType":"uint256"}]},{"type":"error","name":"ERC20InvalidApprover","inputs":[{"name":"approver","type":"address","internalType":"address"}]},{"type":"error","name":"ERC20InvalidReceiver","inputs":[{"name":"receiver","type":"address","internalType":"address"}]},{"type":"error","name":"ERC20InvalidSender","inputs":[{"name":"sender","type":"address","internalType":"address"}]},{"type":"error","name":"ERC20InvalidSpender","inputs":[{"name":"spender","type":"address","internalType":"address"}]},{"type":"error","name":"ERC5805FutureLookup","inputs":[{"name":"timepoint","type":"uint256","internalType":"uint256"},{"name":"clock","type":"uint48","internalType":"uint48"}]},{"type":"error","name":"ERC6372InconsistentClock","inputs":[]},{"type":"error","name":"InvalidAccountNonce","inputs":[{"name":"account","type":"address","internalType":"address"},{"name":"currentNonce","type":"uint256","internalType":"uint256"}]},{"type":"error","name":"InvalidShortString","inputs":[]},{"type":"error","name":"SafeCastOverflowedUintDowncast","inputs":[{"name":"bits","type":"uint8","internalType":"uint8"},{"name":"value","type":"uint256","internalType":"uint256"}]},{"type":"error","name":"StringTooLong","inputs":[{"name":"str","type":"string","internalType":"string"}]},{"type":"error","name":"VotesExpiredSignature","inputs":[{"name":"expiry","type":"uint256","internalType":"uint256"}]}],"bytecode":{"object":"0x6101606040523480156200001257600080fd5b50604051620028a6380380620028a683398101604081905262000035916200094c565b6040805180820190915260018152603160f81b60208201528390818460036200005f838262000a4f565b5060046200006e828262000a4f565b5062000080915083905060056200013d565b61012052620000918160066200013d565b61014052815160208084019190912060e052815190820120610100524660a0526200011f60e05161010051604080517f8b73c3c69bb8fe3d512ecc4cf759cc79239f7b179b0ffacaa9a75d522b39400f60208201529081019290925260608201524660808201523060a082015260009060c00160405160208183030381529060405280519060200120905090565b60805250503060c05262000134338262000176565b50505062000c04565b60006020835110156200015d576200015583620001b8565b905062000170565b816200016a848262000a4f565b5060ff90505b92915050565b6001600160a01b038216620001a65760405163ec442f0560e01b8152600060048201526024015b60405180910390fd5b620001b460008383620001fb565b5050565b600080829050601f81511115620001e6578260405163305a27a960e01b81526004016200019d919062000b1b565b8051620001f38262000b50565b179392505050565b620002088383836200026f565b6001600160a01b0383166200025d5760006200022360025490565b90506001600160d01b03808211156200025a57604051630e58ae9360e11b815260048101839052602481018290526044016200019d565b50505b6200026a838383620003a2565b505050565b6001600160a01b0383166200029e57806002600082825462000292919062000b8b565b90915550620003129050565b6001600160a01b03831660009081526020819052604090205481811015620002f35760405163391434e360e21b81526001600160a01b038516600482015260248101829052604481018390526064016200019d565b6001600160a01b03841660009081526020819052604090209082900390555b6001600160a01b03821662000330576002805482900390556200034f565b6001600160a01b03821660009081526020819052604090208054820190555b816001600160a01b0316836001600160a01b03167fddf252ad1be2c89b69c2b068fc378daa952ba7f163c4a11628f55a4df523b3ef836040516200039591815260200190565b60405180910390a3505050565b6001600160a01b038316620003d757620003d4600a6200077b6200043a60201b17620003ce846200044f565b62000489565b50505b6001600160a01b038216620004065762000403600a62000787620004c660201b17620003ce846200044f565b50505b6001600160a01b038381166000908152600860205260408082205485841683529120546200026a92918216911683620004d4565b600062000448828462000ba1565b9392505050565b60006001600160d01b0382111562000485576040516306dfcc6560e41b815260d06004820152602481018390526044016200019d565b5090565b600080620004b96200049a6200063b565b620004b0620004a9886200064c565b868860201c565b8791906200069b565b915091505b935093915050565b600062000448828462000bcb565b816001600160a01b0316836001600160a01b031614158015620004f75750600081115b156200026a576001600160a01b038316156200059a576001600160a01b038316600090815260096020908152604082208291620005459190620004c6901b6200078717620003ce866200044f565b6001600160d01b031691506001600160d01b03169150846001600160a01b03166000805160206200288683398151915283836040516200058f929190918252602082015260400190565b60405180910390a250505b6001600160a01b038216156200026a576001600160a01b038216600090815260096020908152604082208291620005e291906200043a901b6200077b17620003ce866200044f565b6001600160d01b031691506001600160d01b03169150836001600160a01b03166000805160206200288683398151915283836040516200062c929190918252602082015260400190565b60405180910390a25050505050565b600062000647620006ab565b905090565b80546000908015620006925762000678836200066a60018462000bee565b600091825260209091200190565b54660100000000000090046001600160d01b031662000448565b60009392505050565b600080620004b9858585620006b8565b600062000647436200084a565b825460009081908015620007eb576000620006da876200066a60018562000bee565b60408051808201909152905465ffffffffffff80821680845266010000000000009092046001600160d01b0316602084015291925090871610156200073257604051632520601d60e01b815260040160405180910390fd5b805165ffffffffffff80881691160362000786578462000759886200066a60018662000bee565b80546001600160d01b039290921666010000000000000265ffffffffffff909216919091179055620007da565b6040805180820190915265ffffffffffff80881682526001600160d01b0380881660208085019182528b54600181018d5560008d815291909120945191519092166601000000000000029216919091179101555b602001519250839150620004be9050565b50506040805180820190915265ffffffffffff80851682526001600160d01b0380851660208085019182528854600181018a5560008a8152918220955192519093166601000000000000029190931617920191909155905081620004be565b600065ffffffffffff82111562000485576040516306dfcc6560e41b815260306004820152602481018390526044016200019d565b634e487b7160e01b600052604160045260246000fd5b60005b83811015620008b257818101518382015260200162000898565b50506000910152565b600082601f830112620008cd57600080fd5b81516001600160401b0380821115620008ea57620008ea6200087f565b604051601f8301601f19908116603f011681019082821181831017156200091557620009156200087f565b816040528381528660208588010111156200092f57600080fd5b6200094284602083016020890162000895565b9695505050505050565b6000806000606084860312156200096257600080fd5b83516001600160401b03808211156200097a57600080fd5b6200098887838801620008bb565b945060208601519150808211156200099f57600080fd5b50620009ae86828701620008bb565b925050604084015190509250925092565b600181811c90821680620009d457607f821691505b602082108103620009f557634e487b7160e01b600052602260045260246000fd5b50919050565b601f8211156200026a576000816000526020600020601f850160051c8101602086101562000a265750805b601f850160051c820191505b8181101562000a475782815560010162000a32565b505050505050565b81516001600160401b0381111562000a6b5762000a6b6200087f565b62000a838162000a7c8454620009bf565b84620009fb565b602080601f83116001811462000abb576000841562000aa25750858301515b600019600386901b1c1916600185901b17855562000a47565b600085815260208120601f198616915b8281101562000aec5788860151825594840194600190910190840162000acb565b508582101562000b0b5787850151600019600388901b60f8161c191681555b5050505050600190811b01905550565b602081526000825180602084015262000b3c81604085016020870162000895565b601f01601f19169190910160400192915050565b80516020808301519190811015620009f55760001960209190910360031b1b16919050565b634e487b7160e01b600052601160045260246000fd5b8082018082111562000170576200017062000b75565b6001600160d01b0381811683821601908082111562000bc45762000bc462000b75565b5092915050565b6001600160d01b0382811682821603908082111562000bc45762000bc462000b75565b8181038181111562000170576200017062000b75565b60805160a05160c05160e051610100516101205161014051611c2762000c5f6000396000610a4201526000610a150152600061114b015260006111230152600061107e015260006110a8015260006110d20152611c276000f3fe608060405234801561001057600080fd5b50600436106101375760003560e01c806370a08231116100b857806395d89b411161007c57806395d89b41146102ec5780639ab24eb0146102f4578063a9059cbb14610307578063c3cda5201461031a578063dd62ed3e1461032d578063f1127ed81461036657600080fd5b806370a082311461024d5780637ecebe001461027657806384b0196e1461029f5780638e539e8c146102ba57806391ddadf4146102cd57600080fd5b80633a46b1a8116100ff5780633a46b1a8146101b15780634bf5d7e9146101c4578063587cde1e146101cc5780635c19a95c146102105780636fcfff451461022557600080fd5b806306fdde031461013c578063095ea7b31461015a57806318160ddd1461017d57806323b872dd1461018f578063313ce567146101a2575b600080fd5b6101446103a5565b604051610151919061189b565b60405180910390f35b61016d6101683660046118ca565b610437565b6040519015158152602001610151565b6002545b604051908152602001610151565b61016d61019d3660046118f4565b610451565b60405160128152602001610151565b6101816101bf3660046118ca565b610475565b6101446104fb565b6101f86101da366004611930565b6001600160a01b039081166000908152600860205260409020541690565b6040516001600160a01b039091168152602001610151565b61022361021e366004611930565b610573565b005b610238610233366004611930565b610582565b60405163ffffffff9091168152602001610151565b61018161025b366004611930565b6001600160a01b031660009081526020819052604090205490565b610181610284366004611930565b6001600160a01b031660009081526007602052604090205490565b6102a761058d565b604051610151979695949392919061194b565b6101816102c83660046119e4565b6105d3565b6102d561063d565b60405165ffffffffffff9091168152602001610151565b61014461064c565b610181610302366004611930565b61065b565b61016d6103153660046118ca565b61068b565b6102236103283660046119fd565b610699565b61018161033b366004611a5d565b6001600160a01b03918216600090815260016020908152604080832093909416825291909152205490565b610379610374366004611a90565b610756565b60408051825165ffffffffffff1681526020928301516001600160d01b03169281019290925201610151565b6060600380546103b490611ad0565b80601f01602080910402602001604051908101604052809291908181526020018280546103e090611ad0565b801561042d5780601f106104025761010080835404028352916020019161042d565b820191906000526020600020905b81548152906001019060200180831161041057829003601f168201915b5050505050905090565b600033610445818585610793565b60019150505b92915050565b60003361045f8582856107a5565b61046a858585610823565b506001949350505050565b60008061048061063d565b90508065ffffffffffff1683106104c057604051637669fc0f60e11b81526004810184905265ffffffffffff821660248201526044015b60405180910390fd5b6104ea6104cc84610882565b6001600160a01b0386166000908152600960205260409020906108b9565b6001600160d01b0316949350505050565b606061050561096f565b65ffffffffffff1661051561063d565b65ffffffffffff161461053b576040516301bfc1c560e61b815260040160405180910390fd5b5060408051808201909152601d81527f6d6f64653d626c6f636b6e756d6265722666726f6d3d64656661756c74000000602082015290565b3361057e818361097a565b5050565b600061044b826109ec565b6000606080600080600060606105a1610a0e565b6105a9610a3b565b60408051600080825260208201909252600f60f81b9b939a50919850469750309650945092509050565b6000806105de61063d565b90508065ffffffffffff16831061061957604051637669fc0f60e11b81526004810184905265ffffffffffff821660248201526044016104b7565b61062d61062584610882565b600a906108b9565b6001600160d01b03169392505050565b600061064761096f565b905090565b6060600480546103b490611ad0565b6001600160a01b038116600090815260096020526040812061067c90610a68565b6001600160d01b031692915050565b600033610445818585610823565b834211156106bd57604051632341d78760e11b8152600481018590526024016104b7565b604080517fe48329057bfd03d55e49b547132e39cffd9c1820ad7b9d4c5307691425d15adf60208201526001600160a01b0388169181019190915260608101869052608081018590526000906107379061072f9060a00160405160208183030381529060405280519060200120610aa1565b858585610ace565b90506107438187610afc565b61074d818861097a565b50505050505050565b60408051808201909152600080825260208201526107748383610b4f565b9392505050565b60006107748284611b20565b60006107748284611b47565b6107a08383836001610b85565b505050565b6001600160a01b03838116600090815260016020908152604080832093861683529290522054600019811461081d578181101561080e57604051637dc7a0d960e11b81526001600160a01b038416600482015260248101829052604481018390526064016104b7565b61081d84848484036000610b85565b50505050565b6001600160a01b03831661084d57604051634b637e8f60e11b8152600060048201526024016104b7565b6001600160a01b0382166108775760405163ec442f0560e01b8152600060048201526024016104b7565b6107a0838383610c5a565b600065ffffffffffff8211156108b5576040516306dfcc6560e41b815260306004820152602481018390526044016104b7565b5090565b8154600090818160058111156109185760006108d484610cc1565b6108de9085611b67565b60008881526020902090915081015465ffffffffffff908116908716101561090857809150610916565b610913816001611b7a565b92505b505b600061092687878585610da9565b905080156109615761094b8761093d600184611b67565b600091825260209091200190565b54600160301b90046001600160d01b0316610964565b60005b979650505050505050565b600061064743610882565b6001600160a01b0382811660008181526008602052604080822080548686166001600160a01b0319821681179092559151919094169392849290917f3134e8a2e6d97e929a7e54011ea5485d7d196dd5f0ba4d4ef95803e8e3fc257f9190a46107a081836109e786610e0b565b610e29565b6001600160a01b03811660009081526009602052604081205461044b90610f95565b60606106477f00000000000000000000000000000000000000000000000000000000000000006005610fc6565b60606106477f00000000000000000000000000000000000000000000000000000000000000006006610fc6565b80546000908015610a9857610a828361093d600184611b67565b54600160301b90046001600160d01b0316610774565b60009392505050565b600061044b610aae611071565b8360405161190160f01b8152600281019290925260228201526042902090565b600080600080610ae08888888861119c565b925092509250610af0828261126b565b50909695505050505050565b6001600160a01b03821660009081526007602052604090208054600181019091558181146107a0576040516301d4b62360e61b81526001600160a01b0384166004820152602481018290526044016104b7565b60408051808201909152600080825260208201526001600160a01b03831660009081526009602052604090206107749083611324565b6001600160a01b038416610baf5760405163e602df0560e01b8152600060048201526024016104b7565b6001600160a01b038316610bd957604051634a1406b160e11b8152600060048201526024016104b7565b6001600160a01b038085166000908152600160209081526040808320938716835292905220829055801561081d57826001600160a01b0316846001600160a01b03167f8c5be1e5ebec7d5bd14f71427d1e84f3dd0314c0f7b2291e5b200ac8c7c3b92584604051610c4c91815260200190565b60405180910390a350505050565b610c65838383611394565b6001600160a01b038316610cb6576000610c7e60025490565b90506001600160d01b0380821115610cb357604051630e58ae9360e11b815260048101839052602481018290526044016104b7565b50505b6107a08383836114be565b600081600003610cd357506000919050565b60006001610ce084611534565b901c6001901b90506001818481610cf957610cf9611b8d565b048201901c90506001818481610d1157610d11611b8d565b048201901c90506001818481610d2957610d29611b8d565b048201901c90506001818481610d4157610d41611b8d565b048201901c90506001818481610d5957610d59611b8d565b048201901c90506001818481610d7157610d71611b8d565b048201901c90506001818481610d8957610d89611b8d565b048201901c905061077481828581610da357610da3611b8d565b046115c8565b60005b81831015610e03576000610dc084846115de565b60008781526020902090915065ffffffffffff86169082015465ffffffffffff161115610def57809250610dfd565b610dfa816001611b7a565b93505b50610dac565b509392505050565b6001600160a01b03811660009081526020819052604081205461044b565b816001600160a01b0316836001600160a01b031614158015610e4b5750600081115b156107a0576001600160a01b03831615610ef3576001600160a01b03831660009081526009602052604081208190610e8e90610787610e89866115f9565b61162d565b6001600160d01b031691506001600160d01b03169150846001600160a01b03167fdec2bacdd2f05b59de34da9b523dff8be42e5e38e818c82fdb0bae774387a7248383604051610ee8929190918252602082015260400190565b60405180910390a250505b6001600160a01b038216156107a0576001600160a01b03821660009081526009602052604081208190610f2c9061077b610e89866115f9565b6001600160d01b031691506001600160d01b03169150836001600160a01b03167fdec2bacdd2f05b59de34da9b523dff8be42e5e38e818c82fdb0bae774387a7248383604051610f86929190918252602082015260400190565b60405180910390a25050505050565b600063ffffffff8211156108b5576040516306dfcc6560e41b815260206004820152602481018390526044016104b7565b606060ff8314610fe057610fd983611666565b905061044b565b818054610fec90611ad0565b80601f016020809104026020016040519081016040528092919081815260200182805461101890611ad0565b80156110655780601f1061103a57610100808354040283529160200191611065565b820191906000526020600020905b81548152906001019060200180831161104857829003601f168201915b5050505050905061044b565b6000306001600160a01b037f0000000000000000000000000000000000000000000000000000000000000000161480156110ca57507f000000000000000000000000000000000000000000000000000000000000000046145b156110f457507f000000000000000000000000000000000000000000000000000000000000000090565b610647604080517f8b73c3c69bb8fe3d512ecc4cf759cc79239f7b179b0ffacaa9a75d522b39400f60208201527f0000000000000000000000000000000000000000000000000000000000000000918101919091527f000000000000000000000000000000000000000000000000000000000000000060608201524660808201523060a082015260009060c00160405160208183030381529060405280519060200120905090565b600080807f7fffffffffffffffffffffffffffffff5d576e7357a4501ddfe92f46681b20a08411156111d75750600091506003905082611261565b604080516000808252602082018084528a905260ff891692820192909252606081018790526080810186905260019060a0016020604051602081039080840390855afa15801561122b573d6000803e3d6000fd5b5050604051601f1901519150506001600160a01b03811661125757506000925060019150829050611261565b9250600091508190505b9450945094915050565b600082600381111561127f5761127f611ba3565b03611288575050565b600182600381111561129c5761129c611ba3565b036112ba5760405163f645eedf60e01b815260040160405180910390fd5b60028260038111156112ce576112ce611ba3565b036112ef5760405163fce698f760e01b8152600481018290526024016104b7565b600382600381111561130357611303611ba3565b0361057e576040516335e2f38360e21b8152600481018290526024016104b7565b6040805180820190915260008082526020820152826000018263ffffffff168154811061135357611353611bb9565b60009182526020918290206040805180820190915291015465ffffffffffff81168252600160301b90046001600160d01b0316918101919091529392505050565b6001600160a01b0383166113bf5780600260008282546113b49190611b7a565b909155506114319050565b6001600160a01b038316600090815260208190526040902054818110156114125760405163391434e360e21b81526001600160a01b038516600482015260248101829052604481018390526064016104b7565b6001600160a01b03841660009081526020819052604090209082900390555b6001600160a01b03821661144d5760028054829003905561146c565b6001600160a01b03821660009081526020819052604090208054820190555b816001600160a01b0316836001600160a01b03167fddf252ad1be2c89b69c2b068fc378daa952ba7f163c4a11628f55a4df523b3ef836040516114b191815260200190565b60405180910390a3505050565b6001600160a01b0383166114e0576114dd600a61077b610e89846115f9565b50505b6001600160a01b038216611502576114ff600a610787610e89846115f9565b50505b6001600160a01b038381166000908152600860205260408082205485841683529120546107a092918216911683610e29565b600080608083901c1561154957608092831c92015b604083901c1561155b57604092831c92015b602083901c1561156d57602092831c92015b601083901c1561157f57601092831c92015b600883901c1561159157600892831c92015b600483901c156115a357600492831c92015b600283901c156115b557600292831c92015b600183901c1561044b5760010192915050565b60008183106115d75781610774565b5090919050565b60006115ed6002848418611bcf565b61077490848416611b7a565b60006001600160d01b038211156108b5576040516306dfcc6560e41b815260d06004820152602481018390526044016104b7565b60008061165961163b61063d565b61165161164788610a68565b868863ffffffff16565b8791906116a5565b915091505b935093915050565b60606000611673836116b3565b604080516020808252818301909252919250600091906020820181803683375050509182525060208101929092525090565b6000806116598585856116db565b600060ff8216601f81111561044b57604051632cd44ac360e21b815260040160405180910390fd5b8254600090819080156117fa5760006116f98761093d600185611b67565b60408051808201909152905465ffffffffffff808216808452600160301b9092046001600160d01b03166020840152919250908716101561174d57604051632520601d60e01b815260040160405180910390fd5b805165ffffffffffff80881691160361179957846117708861093d600186611b67565b80546001600160d01b0392909216600160301b0265ffffffffffff9092169190911790556117ea565b6040805180820190915265ffffffffffff80881682526001600160d01b0380881660208085019182528b54600181018d5560008d81529190912094519151909216600160301b029216919091179101555b60200151925083915061165e9050565b50506040805180820190915265ffffffffffff80851682526001600160d01b0380851660208085019182528854600181018a5560008a815291822095519251909316600160301b02919093161792019190915590508161165e565b6000815180845260005b8181101561187b5760208185018101518683018201520161185f565b506000602082860101526020601f19601f83011685010191505092915050565b6020815260006107746020830184611855565b80356001600160a01b03811681146118c557600080fd5b919050565b600080604083850312156118dd57600080fd5b6118e6836118ae565b946020939093013593505050565b60008060006060848603121561190957600080fd5b611912846118ae565b9250611920602085016118ae565b9150604084013590509250925092565b60006020828403121561194257600080fd5b610774826118ae565b60ff60f81b881681526000602060e0602084015261196c60e084018a611855565b838103604085015261197e818a611855565b606085018990526001600160a01b038816608086015260a0850187905284810360c08601528551808252602080880193509091019060005b818110156119d2578351835292840192918401916001016119b6565b50909c9b505050505050505050505050565b6000602082840312156119f657600080fd5b5035919050565b60008060008060008060c08789031215611a1657600080fd5b611a1f876118ae565b95506020870135945060408701359350606087013560ff81168114611a4357600080fd5b9598949750929560808101359460a0909101359350915050565b60008060408385031215611a7057600080fd5b611a79836118ae565b9150611a87602084016118ae565b90509250929050565b60008060408385031215611aa357600080fd5b611aac836118ae565b9150602083013563ffffffff81168114611ac557600080fd5b809150509250929050565b600181811c90821680611ae457607f821691505b602082108103611b0457634e487b7160e01b600052602260045260246000fd5b50919050565b634e487b7160e01b600052601160045260246000fd5b6001600160d01b03818116838216019080821115611b4057611b40611b0a565b5092915050565b6001600160d01b03828116828216039080821115611b4057611b40611b0a565b8181038181111561044b5761044b611b0a565b8082018082111561044b5761044b611b0a565b634e487b7160e01b600052601260045260246000fd5b634e487b7160e01b600052602160045260246000fd5b634e487b7160e01b600052603260045260246000fd5b600082611bec57634e487b7160e01b600052601260045260246000fd5b50049056fea2646970667358221220fbca663fb6bcfc3015ae82c52349efff758eadaf913e838adf75243931da085664736f6c63430008180033dec2bacdd2f05b59de34da9b523dff8be42e5e38e818c82fdb0bae774387a724","linkReferences":{}},"methodIdentifiers":{"CLOCK_MODE()":"4bf5d7e9","allowance(address,address)":"dd62ed3e","approve(address,uint256)":"095ea7b3","balanceOf(address)":"70a08231","checkpoints(address,uint32)":"f1127ed8","clock()":"91ddadf4","decimals()":"313ce567","delegate(address)":"5c19a95c","delegateBySig(address,uint256,uint256,uint8,bytes32,bytes32)":"c3cda520","delegates(address)":"587cde1e","eip712Domain()":"84b0196e","getPastTotalSupply(uint256)":"8e539e8c","getPastVotes(address,uint256)":"3a46b1a8","getVotes(address)":"9ab24eb0","name()":"06fdde03","nonces(address)":"7ecebe00","numCheckpoints(address)":"6fcfff45","symbol()":"95d89b41","totalSupply()":"18160ddd","transfer(address,uint256)":"a9059cbb","transferFrom(address,address,uint256)":"23b872dd"},"id":86}