{"abi":[{"type":"constructor","inputs":[{"name":"owner_","type":"address","internalType":"address"},{"name":"recipient_","type":"address","internalType":"address"},{"name":"token_","type":"address","internalType":"address"},{"name":"decayFactorsX96_","type":"uint256[]","internalType":"uint256[]"}],"stateMutability":"nonpayable"},{"type":"function","name":"Q96","inputs":[],"outputs":[{"name":"","type":"uint256","internalType":"uint256"}],"stateMutability":"view"},{"type":"function","name":"calculateDecay","inputs":[{"name":"duration","type":"uint256","internalType":"uint256"}],"outputs":[{"name":"decayX96","type":"uint256","internalType":"uint256"},{"name":"usedDuration","type":"uint256","internalType":"uint256"}],"stateMutability":"view"},{"type":"function","name":"decayFactorsX96","inputs":[{"name":"","type":"uint256","internalType":"uint256"}],"outputs":[{"name":"","type":"uint256","internalType":"uint256"}],"stateMutability":"view"},{"type":"function","name":"decayedBalanceAt","inputs":[{"name":"time","type":"uint256","internalType":"uint256"}],"outputs":[{"name":"","type":"uint256","internalType":"uint256"},{"name":"","type":"uint256","internalType":"uint256"},{"name":"","type":"uint256","internalType":"uint256"}],"stateMutability":"view"},{"type":"function","name":"lastStreamTime","inputs":[],"outputs":[{"name":"","type":"uint256","internalType":"uint256"}],"stateMutability":"view"},{"type":"function","name":"owner","inputs":[],"outputs":[{"name":"","type":"address","internalType":"address"}],"stateMutability":"view"},{"type":"function","name":"recipient","inputs":[],"outputs":[{"name":"","type":"address","internalType":"address"}],"stateMutability":"view"},{"type":"function","name":"renounceOwnership","inputs":[],"outputs":[],"stateMutability":"nonpayable"},{"type":"function","name":"setRecipient","inputs":[{"name":"recipient_","type":"address","internalType":"address"}],"outputs":[],"stateMutability":"nonpayable"},{"type":"function","name":"stream","inputs":[],"outputs":[],"stateMutability":"nonpayable"},{"type":"function","name":"token","inputs":[],"outputs":[{"name":"","type":"address","internalType":"address"}],"stateMutability":"view"},{"type":"function","name":"transferOwnership","inputs":[{"name":"newOwner","type":"address","internalType":"address"}],"outputs":[],"stateMutability":"nonpayable"},{"type":"function","name":"unlock","inputs":[],"outputs":[],"stateMutability":"nonpayable"},{"type":"event","name":"OwnershipTransferred","inputs":[{"name":"previousOwner","type":"address","indexed":true,"internalType":"address"},{"name":"newOwner","type":"address","indexed":true,"internalType":"address"}],"anonymous":false},{"type":"event","name":"Streamed","inputs":[{"name":"amount","type":"uint256","indexed":false,"internalType":"uint256"},{"name":"duration","type":"uint256","indexed":false,"internalType":"uint256"},{"name":"token","type":"address","indexed":true,"internalType":"address"}],"anonymous":false},{"type":"error","name":"DecayTimeMustBeInFuture","inputs":[{"name":"lastStreamTime","type":"uint256","internalType":"uint256"},{"name":"requestedTime","type":"uint256","internalType":"uint256"}]},{"type":"error","name":"OwnableInvalidOwner","inputs":[{"name":"owner","type":"address","internalType":"address"}]},{"type":"error","name":"OwnableUnauthorizedAccount","inputs":[{"name":"account","type":"address","internalType":"address"}]}],"bytecode":{"object":"0x60806040523480156200001157600080fd5b5060405162000bf238038062000bf28339810160408190526200003491620001af565b836001600160a01b0381166200006457604051631e4fbdf760e01b81526000600482015260240160405180910390fd5b6200006f81620000c5565b50600180546001600160a01b038086166001600160a01b03199283161790925560028054928516929091169190911790558051620000b590600490602084019062000115565b50504260035550620002b1915050565b600080546001600160a01b038381166001600160a01b0319831681178455604051919092169283917f8be0079c531659141344cd1fd0a4f28419497f9722a3daafe3b4186f6b6457e09190a35050565b82805482825590600052602060002090810192821562000153579160200282015b828111156200015357825182559160200191906001019062000136565b506200016192915062000165565b5090565b5b8082111562000161576000815560010162000166565b80516001600160a01b03811681146200019457600080fd5b919050565b634e487b7160e01b600052604160045260246000fd5b60008060008060808587031215620001c657600080fd5b620001d1856200017c565b93506020620001e28187016200017c565b9350620001f2604087016200017c565b60608701519093506001600160401b03808211156200021057600080fd5b818801915088601f8301126200022557600080fd5b8151818111156200023a576200023a62000199565b8060051b604051601f19603f8301168101818110858211171562000262576200026262000199565b60405291825284820192508381018501918b8311156200028157600080fd5b938501935b82851015620002a15784518452938501939285019262000286565b989b979a50959850505050505050565b61093180620002c16000396000f3fe608060405234801561001057600080fd5b50600436106100cf5760003560e01c8063715018a61161008c578063badd98f411610066578063badd98f41461018c578063f2006ed81461019f578063f2fde38b146101cd578063fc0c546a146101e057600080fd5b8063715018a61461016b5780638da5cb5b14610173578063a69df4b51461018457600080fd5b806302119242146100d45780630d3fad6e146101015780633bbed4a014610118578063407924651461012d57806366d003ac146101385780636f2a679114610163575b600080fd5b6100e76100e23660046106da565b6101f3565b604080519283526020830191909152015b60405180910390f35b61010a60035481565b6040519081526020016100f8565b61012b6101263660046106f3565b6102be565b005b61010a600160601b81565b60015461014b906001600160a01b031681565b6040516001600160a01b0390911681526020016100f8565b61012b6102e8565b61012b6103ea565b6000546001600160a01b031661014b565b61012b6103fe565b61010a61019a3660046106da565b610507565b6101b26101ad3660046106da565b610528565b604080519384526020840192909252908201526060016100f8565b61012b6101db3660046106f3565b610622565b60025461014b906001600160a01b031681565b600160601b600082815b6004548110156102b7576000610214600284610739565b600193841c93909150811480156102495750600482815481106102395761023961074d565b9060005260206000200154600014155b156102a057600160601b600483815481106102665761026661074d565b90600052602060002001548661027c9190610779565b6102869190610796565b945061029382600261088e565b61029d908561089a565b93505b826000036102ae57506102b7565b506001016101fd565b5050915091565b6102c661065d565b600180546001600160a01b0319166001600160a01b0392909216919091179055565b60008060006102f642610528565b91945092509050600061030984846108ad565b60025460015460405163a9059cbb60e01b81526001600160a01b03918216600482015260248101849052929350169063a9059cbb906044016020604051808303816000875af1158015610360573d6000803e3d6000fd5b505050506040513d601f19601f8201168201806040525081019061038491906108c0565b508160036000828254610397919061089a565b909155505060025460408051838152602081018590526001600160a01b03909216917f88dfec900d6e76abf4129fd6a13fad9e3990a5dece9bf9dcfb3ad0f746129f49910160405180910390a250505050565b6103f261065d565b6103fc600061068a565b565b61040661065d565b6002546001600160a01b031663a9059cbb6104296000546001600160a01b031690565b6002546040516370a0823160e01b81523060048201526001600160a01b03909116906370a0823190602401602060405180830381865afa158015610471573d6000803e3d6000fd5b505050506040513d601f19601f8201168201806040525081019061049591906108e2565b6040516001600160e01b031960e085901b1681526001600160a01b03909216600483015260248201526044016020604051808303816000875af11580156104e0573d6000803e3d6000fd5b505050506040513d601f19601f8201168201806040525081019061050491906108c0565b50565b6004818154811061051757600080fd5b600091825260209091200154905081565b6000806000600354841015610563576003546040516354aabe9560e01b81526004810191909152602481018590526044015b60405180910390fd5b60006003548561057391906108ad565b9050600080610581836101f3565b6002546040516370a0823160e01b81523060048201529294509092506000916001600160a01b03909116906370a0823190602401602060405180830381865afa1580156105d2573d6000803e3d6000fd5b505050506040513d601f19601f820116820180604052508101906105f691906108e2565b90506000600160601b6106098584610779565b6106139190610796565b99919850919650945050505050565b61062a61065d565b6001600160a01b03811661065457604051631e4fbdf760e01b81526000600482015260240161055a565b6105048161068a565b6000546001600160a01b031633146103fc5760405163118cdaa760e01b815233600482015260240161055a565b600080546001600160a01b038381166001600160a01b0319831681178455604051919092169283917f8be0079c531659141344cd1fd0a4f28419497f9722a3daafe3b4186f6b6457e09190a35050565b6000602082840312156106ec57600080fd5b5035919050565b60006020828403121561070557600080fd5b81356001600160a01b038116811461071c57600080fd5b9392505050565b634e487b7160e01b600052601260045260246000fd5b60008261074857610748610723565b500690565b634e487b7160e01b600052603260045260246000fd5b634e487b7160e01b600052601160045260246000fd5b808202811582820484141761079057610790610763565b92915050565b6000826107a5576107a5610723565b500490565b600181815b808511156107e55781600019048211156107cb576107cb610763565b808516156107d857918102915b93841c93908002906107af565b509250929050565b6000826107fc57506001610790565b8161080957506000610790565b816001811461081f576002811461082957610845565b6001915050610790565b60ff84111561083a5761083a610763565b50506001821b610790565b5060208310610133831016604e8410600b8410161715610868575081810a610790565b61087283836107aa565b806000190482111561088657610886610763565b029392505050565b600061071c83836107ed565b8082018082111561079057610790610763565b8181038181111561079057610790610763565b6000602082840312156108d257600080fd5b8151801515811461071c57600080fd5b6000602082840312156108f457600080fd5b505191905056fea2646970667358221220e758bd9852e9f3a0003e43e484eb5b39b199a6e96f30f39549e43e8ba1f2266864736f6c63430008180033","linkReferences":{}},"methodIdentifiers":{"Q96()":"40792465","calculateDecay(uint256)":"02119242","decayFactorsX96(uint256)":"badd98f4","decayedBalanceAt(uint256)":"f2006ed8","lastStreamTime()":"0d3fad6e","owner()":"8da5cb5b","recipient()":"66d003ac","renounceOwnership()":"715018a6","setRecipient(address)":"3bbed4a0","stream()":"6f2a6791","token()":"fc0c546a","transferOwnership(address)":"f2fde38b","unlock()":"a69df4b5"},"id":48}